:020000040000FA
:100000000C9467050C948F050C948F050C948F0548
:100010000C948F050C948F050C948F050C948F0510
:100020000C948F050C948F050C948F050C948F0500
:100030000C948F050C948F050C948F050C948F05F0
:100040000C9430070C948F050C948F050C948F053D
:100050000C948F050C948F050C948F050C948F05D0
:100060000C948F050C948F050000000023002600DF
:10007000290000000000240027002A0000000000E2
:10008000250028002B0004040404040404040202D4
:100090000202020203030303030301020408102007
:1000A0004080010204081020010204081020000012
:1000B0000008000201000003040700000000000027
:1000C0000000DD00DD00DD00DD00DD00DD004700BB
:1000D0004500440043004200410040003E003D0016
:1000E0003C003B003A00390038003700360035004C
:1000F0003500340033003200310030002F002F0073
:100100002E002D002C002B002B002A002900280097
:1001100028002700260026002500240024002300B4
:100120002300220021002100200020001F001F00CA
:100130001E001E001D001D001C001C001B001B00DB
:100140001A001A00190019001800180018001700EA
:1001500017001600160016001500150015001400F3
:1001600014001400130013001300120012001200F8
:1001700011001100110010001000100010000F00FD
:100180000F000F000F000E000E000E000E000D00FD
:100190000D000D000D000C000C000C000C000C00FC
:1001A0000B000B000B000B000B000A000A000A00FA
:1001B0000A000A000A0009000900090009000900F4
:1001C00009000800080008000800080008000800EE
:1001D00008000700070007000700070007000700E6
:1001E00007000600060006000600060006000600DE
:1001F00006000600060005000500050005000500D4
:1002000005000500050005000500050004000400C8
:1002100004000400040004000400040004000400BE
:1002200004000400040004000400030003000300B1
:10023000030003000300030003000300070007009E
:100240000700070007000700070007000700070076
:10025000070007000600060006000600060006006C
:100260000600060006000600060006000500050060
:100270000500050005000500050005000500050056
:10028000050005000400040004000400040004004C
:100290000300030003000300030003000300030046
:1002A000030003000300030002000200020002003A
:1002B000020002000200020002000200020002002E
:1002C0000100010001000100010001000100010026
:1002D0000100010001000100010001000100010016
:1002E0000100010001000100010001000100010006
:1004C0000100010000000000000000000000010029
:1004D0000100010001000100010001000100020013
:1004E00002000200020002000200030003000300F9
:1004F00003000300030003000300030003000400E3
:1005000004000400040004000400040005000500C9
:1005100005000500050005000500060006000600B0
:100520000600060007000700070007000700070095
:10053000080008000800080008000800080009007A
:100540000900090009000A000A000A000A000A005E
:100550000A000B000B000B000B000C000C000C0041
:100560000D000D000D000D000D000D000E000E0021
:100570000E000E000F000F000F000F000F00100004
:1005800010001000110011001100120012001200E2
:1005900012001300130013001300140014001400C1
:1005A000150015001500160016001600170017009C
:1005B00017001800180018001900190019001A0077
:1005C0001A001B001B001B001C001C001D001D004E
:1005D0001D001E001E001F001F001F002000200025
:1005E00021002100220022002200230023002400F9
:1005F00025002500260026002600270027002800C9
:10060000290029002A002A002B002C002C002D0094
:100610002D002E002F00300031003100320032005A
:10062000330034003400350037003700380039001B
:1006300039003A003B003C003D003E003F004000D6
:100640004100420043004400450046004700480086
:1006500049004B004C004E004F004F00510052002B
:10066000540056005600580059005B005D005E00C3
:10067000600062006300650068006A006B006D0046
:100680006F0072007400770079007B007E008000AC
:100690008300860089008B008E00910094009900F1
:1006A0009C009F00A300A800AB00B100B400B800FC
:1006B000BE00C200C800CF00D300DA00E200E700AD
:1006C000EE00F700FF000000000001000100010043
:1006D0000200020002000300030004000400040002
:1006E00005000500050006000600060007000700DB
:1006F000080008000800090009000A000A000A00B2
:100700000B000B000C000C000C000D000D000E0087
:100710000E000E000F000F0010001000110011005D
:100720001100120012001300130014001400150031
:100730001500160016001600170017001800180004
:10074000190019001A001A001B001B001C001C00D5
:100750001D001D001E001E001F001F0020002000A5
:100760002100220022002300230024002400250071
:10077000250026002600270028002800290029003F
:100780002A002B002B002C002C002D002E002E0008
:100790002F002F00300031003100320033003300D1
:1007A0003400350035003600370037003800390096
:1007B00039003A003B003C003C003D003E003E005A
:1007C0003F0040004100410042004300440045001A
:1007D0004500460047004800490049004A004B00D8
:1007E0004C004D004E004E004F0050005100520092
:1007F0005300540055005600570057005800590048
:100800005A005B005C005D005E005F0060006100FC
:1008100062006300640065006600680069006A00A9
:100820006B006C006D006E006F0071007200730051
:10083000740075007600780079007A007B007D00F6
:100840007E007F0081008200830085008600870093
:1008500089008A008C008D008F0090009100930029
:1008600094009600980099009B009C009E00A000B8
:10087000A100A300A500A600A800AA00AC00AD003E
:10088000AF00B100B300B500B700B900BB00BD00B8
:10089000BF00C100C300C500C700C900CB00CD0028
:1008A000D000D200D400D600D900DB00DE00E0008A
:1008B000E200E500E700EA00ED00EF00F200F500DD
:1008C000F700FA00FD000001000003000600090027
:1008D0000B000E0011001300160019001B001E0073
:1008E00020002200250027002A002C002E003000C6
:1008F00033003500370039003B003D003F00410028
:1009000043004500470049004B004D004F00510097
:1009100053005400560058005A005B005D005F0011
:100920006000620064006500670068006A006C0097
:100930006D006F0070007100730074007600770026
:1009400079007A007B007D007E007F0081008200BC
:10095000830085008600870088008A008B008C0059
:100960008D008E008F0091009200930094009500FE
:100970009600970098009A009B009C009D009E00A6
:100980009F00A000A100A200A300A400A500A60053
:10099000A700A800A900A900AA00AB00AC00AD0008
:1009A000AE00AF00B000B100B200B200B300B400BE
:1009B000B500B600B700B700B800B900BA00BB0078
:1009C000BB00BC00BD00BE00BF00BF00C000C10036
:1009D000C200C200C300C400C400C500C600C700F6
:1009E000C700C800C900C900CA00CB00CB00CC00BA
:1009F000CD00CD00CE00CF00CF00D000D100D1007F
:100A0000D200D200D300D400D400D500D500D60047
:100A1000D700D700D800D800D900DA00DA00DB0010
:100A2000DB00DC00DC00DD00DD00DE00DE00DF00DE
:100A3000E000E000E100E100E200E200E300E300AA
:100A4000E400E400E500E500E600E600E700E7007A
:100A5000E800E800E900E900EA00EA00EA00EB004B
:100A6000EB00EC00EC00ED00ED00EE00EE00EF001E
:100A7000EF00EF00F000F000F100F100F200F200F2
:100A8000F200F300F300F400F400F400F500F500C8
:100A9000F600F600F600F700F700F800F800F8009E
:100AA000F900F900FA00FA00FA00FB00FB00FB0075
:100AB000FC00FC00FC00FD00FD00FE00FE00FE004E
:100AC000FF00FF00FF00000100019816C01611246E
:100AD0001FBECFEFD8E0DEBFCDBF15E0A0E0B1E094
:100AE000EEE5F0E302C005900D92A231B107D9F70F
:100AF00025E0A2E1B5E001C01D92A93BB207E1F7F4
:100B000015E0C6E6D5E004C02197FE010E941C183E
:100B1000C536D107C9F70E949E070C9422180C9481
:100B2000000090E0FC01E255FF4F2491FC01E656E5
:100B3000FF4F3491FC01EA57FF4FE491EE23C9F0D7
:100B4000222339F0233001F1A8F4213019F12230A9
:100B500029F1F0E0EE0FFF1FE458FF4FA591B4918B
:100B60008FB7F894EC91611126C030953E233C93E9
:100B70008FBF08952730A9F02830C9F0243049F7F5
:100B8000809180008F7D03C0809180008F7780935B
:100B90008000DFCF84B58F7784BDDBCF84B58F7DB8
:100BA000FBCF8091B0008F778093B000D2CF80913F
:100BB000B0008F7DF9CF3E2BDACFCF93DF9390E05B
:100BC000FC01E656FF4F24918A579F4FFC01849108
:100BD0008823C9F090E0880F991FFC01EE58FF4F61
:100BE000A591B491FC01E458FF4FC591D4916111D6
:100BF0000DC09FB7F8948C91209582238C938881A7
:100C0000282328839FBFDF91CF910895623051F44C
:100C10009FB7F8943C91822F809583238C93E88131
:100C20002E2BEFCF8FB7F894EC912E2B2C938FBFF8
:100C3000EACF1F93CF93DF93182FEB0161E00E945F
:100C4000DD05209739F460E0812FDF91CF911F916E
:100C50000C949105CF3FD10511F461E0F5CFE12F60
:100C6000F0E0E255FF4FE491E33031F140F4E13040
:100C7000B1F0E230E1F0C038D1057CF7E4CFE730E5
:100C800029F1E83059F1E430B1F7809180008062B9
:100C900080938000D0938B00C0938A0004C084B5F9
:100CA000806884BDC7BDDF91CF911F91089584B541
:100CB000806284BDC8BDF7CF80918000806880933A
:100CC0008000D0938900C0938800EDCF8091B00060
:100CD00080688093B000C093B300E5CF8091B000EE
:100CE00080628093B000C093B400DDCF8E508064EA
:100CF00080937C0080917A00806480937A00809158
:100D00007A0086FDFCCF809178009091790008955B
:100D10003FB7F8948091170590911805A091190597
:100D2000B0911A0526B5A89B05C02F3F19F0019672
:100D3000A11DB11D3FBFBA2FA92F982F8827BC0135
:100D4000CD01620F711D811D911D42E0660F771F5D
:100D5000881F991F4A95D1F708958F929F92AF925D
:100D6000BF92CF92DF92EF92FF920E9488064B01D2
:100D70005C0180E1C82E87E2D82EE12CF12C0E9484
:100D80008806681979098A099B09683E73408105BC
:100D90009105A8F321E0C21AD108E108F10888EE14
:100DA000880E83E0981EA11CB11CC114D104E1047B
:100DB000F10429F7FF90EF90DF90CF90BF90AF90B4
:100DC0009F908F9008952FB7F894609113057091BC
:100DD000140580911505909116052FBF0895DC012B
:100DE0001496ED91FC911597908111968C918095B8
:100DF000892380830895FC01611102C00C94EF06E1
:100E0000A481B5819C918181892B8C930895CF9386
:100E1000DF93DC01EC91F0E0EE0FFF1FE859FF4F8C
:100E2000C591D491988111968C91982381E009F411
:100E300080E0DF91CF910895FC01A281B3818C9174
:100E40009181909598239C93A481B5819C918181F7
:100E5000809589238C9308950C948C170C94841797
:100E60001F920F920FB60F9211242F933F938F93DF
:100E70009F93AF93BF938091130590911405A09118
:100E80001505B09116053091120523E0230F2D377B
:100E900058F50196A11DB11D2093120580931305ED
:100EA00090931405A0931505B0931605809117052E
:100EB00090911805A0911905B0911A050196A11DF0
:100EC000B11D8093170590931805A0931905B09351
:100ED0001A05BF91AF919F918F913F912F910F90E4
:100EE0000FBE0F901F90189526E8230F0296A11DA4
:100EF000B11DD2CFDC0170E0FB01E656FF4FE4915B
:100F00001196EC9311976A577F4FFB0124912C9314
:100F100030E0220F331FF901EE58FF4F8591949175
:100F200013969C938E931297F901E458FF4F859185
:100F3000949115969C938E9314970895CF93DF9375
:100F4000CDB7DEB72A970FB6F894DEBF0FBECDBF80
:100F5000789484B5826084BD84B5816084BD85B594
:100F6000826085BD85B5816085BD80916E008160A0
:100F700080936E0010928100809181008260809346
:100F80008100809181008160809381008091800048
:100F90008160809380008091B10084608093B10073
:100FA0008091B00081608093B00080917A0084606D
:100FB00080937A0080917A00826080937A00809199
:100FC0007A00816080937A0080917A0080688093B3
:100FD0007A001092C10085B5887F816085BD8091BF
:100FE000B100887F81608093B10080918100887F0B
:100FF00081608093810084E893E00E942E078F3FF8
:1010000009F0D0C381E090E090930B0180930A0136
:10101000909305018093040160E084E690E00E94D3
:101020002C0760E08EE690E00E942C0760E089E6E5
:1010300090E00E942C0760E083E790E00E942C077C
:101040006AE284E893E00E942C0760E08EE00E9450
:10105000DD0560E08FE00E94DD0561E08BE00E942D
:10106000DD0561E083E00E94DD0561E084E00E942F
:10107000DD0560E084E10E94DD0560E085E10E941D
:10108000DD0562E081E00E94DD0562E080E00E9413
:10109000DD0560E080E10E94DD0560E081E10E9405
:1010A000DD0561E085E00E94DD0561E086E00E94EB
:1010B000DD0561E087E00E94DD0560E082E10E94DD
:1010C000DD0560E083E10E94DD0562E08AE00E94C8
:1010D000DD0562E089E00E94DD0561E08AEA95E0D5
:1010E0000E94FB060E94AD0661E084EA95E00E9442
:1010F000FB060E94AD068AEA95E00E94EF060E9478
:10110000AD0661E083E795E00E94FB060E94AD0614
:1011100061E08DE695E00E94FB060E94AD0683E744
:1011200095E00E94EF060E94AD063EEF232E312C83
:101130008DE295E00E94070791E0811190E0909385
:101140002C05811103C021E02093060120912B057D
:10115000921781F081110C9415160E94E30660939A
:101160002705709328058093290590932A0531E07F
:1011700030932B0580912C058823D9F00E94E3063B
:1011800000912705109128052091290530912A0505
:10119000601B710B820B930B613F79448240910578
:1011A00040F0B1E0B093B00561E089E690E00E94C4
:1011B0002C0780910A0190910B01039724F0109263
:1011C0000B0110920A0181E295E00E94070791E06D
:1011D000811190E090932005811103C021E02093BC
:1011E000000120911F05921781F081110C94461681
:1011F0000E94E30660931B0570931C0580931D05F8
:1012000090931E0531E030931F05809120058823BF
:10121000D9F00E94E30600911B0510911C05209156
:101220001D0530911E05601B710B820B930B613FF6
:1012300079448240910540F0B1E0B093790561E0D6
:1012400083E790E00E942C078091040190910501B2
:10125000039724F0109205011092040189E395E0B0
:101260000E9407078A8721E02D8381111D823D811D
:1012700030938F0583E395E00E94070791E0811189
:1012800090E090935C0580910A0190910B01039787
:1012900024F010920B0110920A0184E10E9476065C
:1012A0009C01990F440B550B345041095109A0EF93
:1012B000BAE00E94B91720E034E040E050E00E941C
:1012C0009A1750954095309521953F4F4F4F5F4F5E
:1012D000DA01C90188579540A109B1098E839F831E
:1012E000A887B987909383058093820585E10E9442
:1012F00076069C01990F440B550B34504109510956
:10130000A0EFBAE00E94B91720E034E040E050E0DE
:101310000E949A1750954095309521953F4F4F4F19
:101320005F4FDA01C90188579540A109B109898346
:101330009A83AB83BC8390937D0580937C058EE07C
:101340000E9476060E811F81080F191F8FE00E94F0
:1013500076067C01012E000C220B330BC901B8016B
:1013600009E0660F771F881F991F0A95D1F720E0C3
:1013700034E040E050E00E949A174901309346055E
:101380002093450569817A816E0D7F1D072E000C23
:10139000880B990B29E0660F771F881F991F2A95E4
:1013A000D1F720E034E040E050E00E949A17C901F4
:1013B0003093440520934305A1E08A16A2E09A06E3
:1013C00034F020E032E0309346052093450520912B
:1013D00045053091460537FF04C01092460510922E
:1013E00045058130924034F080E092E090934405CE
:1013F00080934305809143059091440597FF04C075
:101400001092440510924305809045059090460542
:10141000A0904305B090440582E10E9476069C01AD
:10142000990F440B550B345041095109A0EFBAE014
:101430000E94B91720E034E040E050E00E949A1783
:1014400050954095309521953F4F4F4F5F4F690123
:101450007A0198E7C91A95E0D90AE108F108D09213
:101460005005C0924F0583E10E9476069C01990FBA
:10147000440B550B345041095109A0EFBAE00E94CA
:10148000B91720E034E040E050E00E949A175095F0
:101490004095309521953F4F4F4F5F4F29013A01BD
:1014A000A8E74A1AA5E05A0A6108710850924A054D
:1014B0004092490580E10E947606C80ED91E81E15E
:1014C0000E9476068C01B601DD0C880B990BB9E001
:1014D000660F771F881F991FBA95D1F720E034E077
:1014E00040E050E00E949A17690130934205209332
:1014F0004105400E511E052C000C66087708C301FB
:10150000B20119E0660F771F881F991F1A95D1F74E
:1015100020E034E040E050E00E949A17C901309387
:10152000400520933F05B1E0CB16B2E0DB0634F076
:1015300020E032E03093420520934105209141059F
:101540003091420537FF04C01092420510924105C8
:101550008130924034F080E092E090934005809397
:101560003F0580913F059091400597FF04C0109280
:10157000400510923F052091410530914205809130
:101580003F0590914005F401EE0FFF1F892889F077
:10159000DF01A05FBE4F4D915C91052E000C660BE4
:1015A000770B40939C0550939D0560939E05709327
:1015B0009F05EE53FF4FE491EE2EF12CF0929B0528
:1015C000E0929A05F501EE0FFF1FAB2889F0DF01CD
:1015D000A05FBE4F4D915C91052E000C660B770B02
:1015E00040939205509393056093940570939505ED
:1015F000EE53FF4FE4910E2F10E0109391050093EE
:101600009005F901EE0FFF1F232B49F0DF01A05FCA
:10161000BE4F2D913C913093680520936705EE53A2
:10162000FF4FE491F0E0F0936605E0936505FC015F
:10163000EE0FFF1F892B49F0DF01A05FBE4F8D9198
:101640009C919093600580935F05EE53FF4FE4916A
:10165000F0E0F0935E05E0935D058091B005813088
:1016600009F441C380910A0190910B0181309105E9
:1016700009F4C5C08230910509F428C2892B09F00C
:101680005EC161E08AEA95E00E94FB0661E084EABF
:1016900095E00E94FB066090B7057090B8052CE4B9
:1016A00030E0D3010E94151820E031E040E050E026
:1016B0000E949A1749015A0194EB890E911CA11CB2
:1016C000B11C90928E0580928D0520E530E0D3010B
:1016D0000E94151820E031E040E050E00E949A1787
:1016E000290130938C0520938B0580910901882373
:1016F00011F40C9454150E94E3060091A00510917A
:10170000A1052091A2053091A305601B710B820BEE
:10171000930B00919C0510919D0520919E053091A1
:101720009F050617170728073907A0F5E09107015D
:10173000F0910801EE0EFF1EF0920801E092070101
:101740000E94E3066093A0057093A1058093A20513
:101750009093A3050E94E306609396057093970506
:101760008093980590939905AFEFEA16F10424F061
:101770003092080120920701E0910701F0910801E1
:10178000EE0FFF1FE853F74FE491F0E0F093B80538
:10179000E093B7053A8531110C94771691E0909358
:1017A0000901CDC084E690E00E942E0790E090935E
:1017B0000B0180930A018EE690E00E942E0790E0D4
:1017C000909305018093040189E690E00E942E0722
:1017D00091E0811101C090E09093B00583E790E023
:1017E0000E942E0791E0811101C090E0909379054D
:1017F0002CCC10922B05BECC10921F0506CD61E0BB
:101800008AEA95E00E94FB0684EA95E00E94EF06D2
:1018100080910901882309F445C00E94E306809065
:10182000A0059090A105A090A205B090A30568190D
:1018300079098A099B0980909C0590909D05A0904C
:101840009E05B0909F0586169706A806B90608F073
:101850006DC0E091B705F091B805EE0EFF1EF09255
:10186000B805E092B7050E94E3066093A005709367
:10187000A1058093A2059093A3050E94E3066093BF
:1018800096057093970580939805909399059FEF1F
:10189000E916F1040CF44AC0109209013092B8051F
:1018A0002092B7050E94E306C0909605D090970558
:1018B000E0909805F09099056C197D098E099F09B3
:1018C000C0909205D0909305E0909405F090950516
:1018D000C616D706E806F90648F58091B705909137
:1018E000B805DC01A01BB10B8D01B093B805A09326
:1018F000B7050E94E3066093960570939705809361
:101900009805909399050E94E3066093A005709353
:10191000A1058093A2059093A30517FF07C0B1E02E
:10192000B09309011092B8051092B7052A852111CC
:1019300006C0109209011092B8051092B705809167
:101940007905813009F458C6809104019091050110
:101950008130910509F41EC48230910509F41CC53B
:10196000892B09F0C1C461E083E795E00E94FB0682
:1019700061E08DE695E00E94FB060091B3051091B1
:10198000B4052CE430E0D8010E94151820E031E0C5
:1019900040E050E00E949A1769017A0184EBC80E7A
:1019A000D11CE11CF11CD0925B05C0925A0520E5C8
:1019B00030E0D8010E94151820E031E040E050E00E
:1019C0000E949A1749013093590520935805909128
:1019D00003019983992311F40C94C4150E94E30622
:1019E0000091690510916A0520916B0530916C0595
:1019F000AB01BC01401B510B620B730B809167055F
:101A000090916805092E000CAA0BBB0B8417950753
:101A1000A607B707B8F50091010110910201809166
:101A2000650590916605080F191F10930201009338
:101A300001010E94E3066093690570936A05809333
:101A40006B0590936C050E94E306609361057093AB
:101A5000620580936305909364050F3F110524F0A0
:101A60003092020120920101E0910101F091020106
:101A7000EE0FFF1FE853F74FE491F0E0F093B40549
:101A8000E093B30580915C05882309F49FC5A98183
:101A9000A11198C5809101019091020118161906B3
:101AA0000CF090C5E091B305F091B405EE0FFF1F67
:101AB000EC53FB4FE491F0E08E0E9F1E90920201DA
:101AC00080920101B1E0B09303010EC48AEA95E06F
:101AD0000E94EF0661E084EA95E00E94FB06C09058
:101AE000B705D090B8052CE430E0D6010E94151857
:101AF00020E031E040E050E00E949A172C543F4F24
:101B00004F4F5F4F30938E0520938D0520E530E0D9
:101B1000D6010E94151820E031E040E050E00E941C
:101B20009A17490130938C0520938B058091090108
:101B3000882311F40C948F160E94E3064090A005B0
:101B40005090A1056090A2057090A30564197509D5
:101B50008609970940909C0550909D0560909E05D0
:101B600070909F05461657066806790610F00C948B
:101B70008B16E0910701F0910801EE0EFF1EF09226
:101B80000801E09207010E94E3066093A0057093AC
:101B9000A1058093A2059093A3050E94E30660939C
:101BA00096057093970580939805909399053FEF5C
:101BB000E316F10434F030920801209207011092EC
:101BC0000901E0910701F0910801EE0FFF1FE853B2
:101BD000F74FE491F0E0F093B805E093B705F0908B
:101BE0000901F1104FC00E94E30640909605509005
:101BF0009705609098057090990564197509860994
:101C000097094090920550909305609094057090CC
:101C100095054616570668067906A0F580910701D6
:101C200090910801DC01A01BB10B8D01B09308015C
:101C3000A09307010E94E3066093960570939705B1
:101C400080939805909399050E94E3066093A00500
:101C50007093A1058093A2059093A30517FF04C07C
:101C60001092080110920701E0910701F09108011C
:101C7000EE0FFF1FEA53F94FE491F0E0F093B8053F
:101C8000E093B70580918A05BD818B1709F457CE83
:101C90002A85211125C0F1101DC080910701909166
:101CA000080118161906B4F4E091B705F091B805CB
:101CB000EE0FFF1FEC53FB4FE491F0E08E0E9F1EE2
:101CC000909208018092070131E03093090130932E
:101CD0008A0535CE81E08093090180938A052FCE55
:101CE00010928A052CCEAA85A11102C0109206017D
:101CF0000E94E306009186051091870520918805D2
:101D000030918905601B710B820B930B6131774217
:101D10008105910598F08091840590918505019643
:101D200090938505809384050E94E3066093860561
:101D30007093870580938805909389058091840529
:101D400090918505029724F01092850510928405E4
:101D50008091840590918505009709F088C18AEAF1
:101D600095E00E94EF0661E084EA95E00E94FB06A0
:101D70008EE00E9476062E813F81820F931F092EEE
:101D8000000CAA0BBB0B813034E09307A105B10511
:101D90000CF07AC180937E0590937F05A093800517
:101DA000B093810580917E0590917F05A09180057B
:101DB000B0918105B7FF08C010927E0510927F0593
:101DC000109280051092810520917E0530917F054B
:101DD0004091800550918105211592E03907410518
:101DE00051050CF056C1AFEFBFE30E94B91720E0D8
:101DF00032E040E050E00E949A172F5F3F4F4F4F74
:101E00005F4F20937E0530937F054093800550936C
:101E100081058FE00E947606A981BA818A0F9B1FF7
:101E200097FD53C190937B0580937A0580917A0545
:101E300090917B058130944034F020E034E0309381
:101E40007B0520937A058FE00E947606A981BA81EE
:101E50008A0F9B1F81159240B4F4A0917A05B0912E
:101E60007B052EE130E00E94151820E032E040E0D2
:101E700050E00E949A172E5F3F4F4F4F5F4F3093B5
:101E80007B0520937A058FE00E94760629813A81AE
:101E9000820F931F81159240ECF020917A053091CA
:101EA0007B05032E000C440B550B325041095109A0
:101EB000A0EEB0E00E94B91720E032E040E050E030
:101EC0000E949A17205E3F4F4F4F5F4F30937B0524
:101ED00020937A0580917A0590917B051816190652
:101EE00034F081E090E090937B0580937A058091B7
:101EF0007A0590917B058130914034F020E031E00B
:101F000030937B0520937A0580910601882309F49C
:101F1000E1C0C0907A05D0907B053CEDC316D1049A
:101F20000CF054C00E94E3060091A0051091A10599
:101F30002091A2053091A305601B710B820B930BBE
:101F400000917E0510917F052091800530918105DB
:101F50000617170728073907C8F546018FEF881AB3
:101F6000980A092C000CAA08BB08D194C194D10886
:101F70000D2C000CEE08FF08C814D904EA04FB0479
:101F80008CF48C189D08AE08BF0841F00E942C17F5
:101F9000A50194010E949A174B015C01C80CD91C41
:101FA000EA1CFB1C8091B7059091B805C80ED91E9C
:101FB000D092B805C092B7050E94E3066093A005D1
:101FC0007093A1058093A2059093A30580917A0553
:101FD00090917B058D3D91058CF10E94E306009167
:101FE000A0051091A1052091A2053091A305601BC9
:101FF000710B820B930B00917E0510917F05209150
:102000008005309181050617170728073907B0F4B6
:102010000E942C1720E031E040E050E00E949A1727
:102020007093B8056093B7050E94E3066093A0051E
:102030007093A1058093A2059093A3058091B705A5
:102040009091B80597FF04C01092B8051092B7059B
:102050008091B7059091B8058B3F91050CF46FCC3A
:102060008AEF90E09093B8058093B70568CC01970C
:1020700009F07ECE61E08AEA95E00E94FB0684EAE0
:1020800095E00E94EF0674CE80E094E0A0E0B0E01E
:1020900081CE32504109510960E070EC81E090E05E
:1020A0000E94FD1719E095958795779567951A9584
:1020B000D1F7705C8F4F9F4F60937E0570937F05C3
:1020C0008093800590938105A4CE10927B05109299
:1020D0007A05ACCE80918A059D81891709F4AECF2F
:1020E000AA85A11154C0C0907A05D0907B05BCEDA3
:1020F000CB16D1049CF546012FEF821A920A092CC7
:10210000000CAA08BB08D194C194D1080D2C000C76
:10211000EE08FF08C814D904EA04FB048CF48C18F8
:102120009D08AE08BF0841F00E942C17A50194013C
:102130000E949A174B015C01C80CD91CEA1CFB1CBD
:102140008091B7059091B805C80ED91ED092B805F8
:10215000C092B70580918F0580938A0580917A059A
:1021600090917B058D3D91050CF468CF0E942C1752
:1021700020E031E040E050E00E949A177093B805EB
:102180006093B70580918F0580938A0557CF109291
:102190008A0554CF61E083E795E00E94FB068DE657
:1021A00095E00E94EF0680910301882309F44AC05C
:1021B0000E94E3060091690510916A0520916B0564
:1021C00030916C05AB01BC01401B510B620B730BD2
:1021D0008091670590916805092E000CAA0BBB0B36
:1021E00084179507A607B70708F074C00091B305D8
:1021F0001091B4058091650590916605080F191F2F
:102200001093B4050093B3050E94E306609369053B
:1022100070936A0580936B0590936C050E94E306AA
:1022200060936105709362058093630590936405E4
:102230000F3F11050CF44EC0109203013092B4050B
:102240002092B3050E94E30600916105109162059A
:102250002091630530916405AB01BC01401B510B1B
:10226000620B730B80915F0590916005092E000C45
:10227000AA0BBB0B84179507A607B70758F5009163
:10228000B3051091B40580915D0590915E05081B22
:10229000190B1093B4050093B3050E94E3066093F5
:1022A00061057093620580936305909364050E94B5
:1022B000E3066093690570936A0580936B059093BC
:1022C0006C0517FF07C091E0909303011092B405CD
:1022D0001092B30580915C05882331F010920301C0
:1022E0001092B4051092B3058091B7059091B8058E
:1022F0008F3F910539F034F0AFEFB0E0B093B805FF
:10230000A093B7058091B7059091B80597FF04C0D9
:102310001092B8051092B705E090B705F090B80597
:102320009701A1E0BFEF0E940D182FEF30E040E0D1
:1023300050E00E949A1721503F4F4F4F5F4F30930C
:10234000B6052093B5050091B3051091B405980129
:10235000A1E0BFEF0E940D182FEF30E040E050E009
:102360000E949A1721503F4F4F4F5F4F3093B20555
:102370002093B105B7018BE00E941906B80185E0F2
:102380000E94190620E030E0232B11F40C949808E9
:102390000E9400000C94950883E795E00E94EF06E8
:1023A00061E08DE695E00E94FB060091B305109177
:1023B000B4052CE430E0D8010E94151820E031E08B
:1023C00040E050E00E949A172C543F4F4F4F5F4F10
:1023D00030935B0520935A0520E530E0D8010E9438
:1023E000151820E031E040E050E00E949A176901A2
:1023F000309359052093580580910301882309F4EF
:1024000095C40E94E3060091690510916A05209128
:102410006B0530916C05AB01BC01401B510B620B8D
:10242000730B8091670590916805092E000CAA0B2B
:10243000BB0B84179507A607B70708F073C4009174
:102440000101109102018091650590916605080FC8
:10245000191F10930201009301010E94E30660938B
:10246000690570936A0580936B0590936C050E94D3
:10247000E306609361057093620580936305909312
:1024800064050F3F110534F03092020120920101E2
:1024900010920301E0910101F0910201EE0FFF1F84
:1024A000E853F74FE491F0E0F093B405E093B305FF
:1024B000A0910301A983A11153C00E94E3060091DA
:1024C0006105109162052091630530916405AB01AF
:1024D000BC01401B510B620B730B80915F05909107
:1024E0006005092E000CAA0BBB0B84179507A607E5
:1024F000B707B0F5009101011091020180915D05CF
:1025000090915E05081B190B1093020100930101C5
:102510000E94E306609361057093620580936305F2
:10252000909364050E94E3066093690570936A05C1
:1025300080936B0590936C0517FF04C01092020105
:1025400010920101E0910101F0910201EE0FFF1FD5
:10255000EA53F94FE491F0E0F093B405E093B3054A
:1025600080915C0590915705981709F4BDCE88239A
:1025700031F1B981B1111DC0809101019091020129
:1025800018161906B4F4E091B305F091B405EE0FF6
:10259000FF1FEC53FB4FE491F0E0CE0EDF1ED09214
:1025A0000201C092010121E020930301209357050D
:1025B0009BCE31E0309303013093570595CE1092B6
:1025C000570592CE21E0209303018ECE398133232B
:1025D00081F0E091B105F091B205EE0FFF1FEC53D1
:1025E000FB4FE491F0E0CE1ADF0AD0920201C092D4
:1025F00001011092030178CE80915C0589838111DD
:10260000109200010E94E3060091530510915405B9
:102610002091550530915605601B710B820B930B71
:10262000613177428105910598F080915105909133
:102630005205019690935205809351050E94E3063E
:1026400060935305709354058093550590935605F8
:102650008091510590915205029724F010925205F5
:10266000109251058091510590915205009709F003
:1026700088C183E795E00E94EF0661E08DE695E072
:102680000E94FB0680E10E94760620914F05309162
:102690005005820F931F092E000CAA0BBB0B813033
:1026A00024E09207A105B1050CF078C180934B0599
:1026B00090934C05A0934D05B0934E0580914B052A
:1026C00090914C05A0914D05B0914E05B7FF08C003
:1026D00010924B0510924C0510924D0510924E052C
:1026E00020914B0530914C0540914D0550914E0580
:1026F000211592E03907410551050CF054C1AFEFA7
:10270000BFE30E94B91720E032E040E050E00E94B1
:102710009A172F5F3F4F4F4F5F4F20934B053093DA
:102720004C0540934D0550934E0581E10E9476067D
:102730000091490510914A05800F911F97FD4FC1E7
:1027400090934805809347058091470590914805EF
:102750008130944034F020E034E0309348052093F9
:10276000470581E10E947606800F911F81159240F6
:10277000B4F4A0914705B09148052EE130E00E94E5
:10278000151820E032E040E050E00E949A172E5FDA
:102790003F4F4F4F5F4F309348052093470581E1EE
:1027A0000E947606800F911F81159240ECF02091D7
:1027B000470530914805032E000C440B550B325051
:1027C00041095109A0EEB0E00E94B91720E032E0C3
:1027D00040E050E00E949A17205E3F4F4F4F5F4FFE
:1027E000309348052093470580914705909148050F
:1027F0001816190634F021E030E030934805209394
:10280000470580914705909148058130914034F00B
:1028100080E091E090934805809347058091000106
:10282000882309F4E1C0C0904705D09048059CED8D
:10283000C916D1040CF054C00E94E306009169054A
:1028400010916A0520916B0530916C05601B710B2E
:10285000820B930B00914B0510914C0520914D0577
:1028600030914E050617170728073907C8F54601A6
:10287000AFEF8A1A9A0A092C000CAA08BB08D19457
:10288000C194D1080D2C000CEE08FF08C814D9041F
:10289000EA04FB048CF48C189D08AE08BF0841F0D4
:1028A0000E942C17A50194010E949A174B015C010C
:1028B000C80CD91CEA1CFB1C8091B3059091B4058F
:1028C000C80ED91ED092B405C092B3050E94E3068B
:1028D0006093690570936A0580936B0590936C050E
:1028E00080914705909148058D3D91058CF10E949E
:1028F000E3060091690510916A0520916B053091FE
:102900006C05601B710B820B930B00914B051091B2
:102910004C0520914D0530914E05061717072807E5
:102920003907B0F40E942C1720E031E040E050E07D
:102930000E949A177093B4056093B3050E94E30652
:102940006093690570936A0580936B0590936C059D
:102950008091B3059091B40597FF04C01092B4051F
:102960001092B3058091B3059091B4058B3F91050A
:102970000CF4BACC8AEF90E09093B4058093B30541
:10298000B3CC019709F07ECE61E083E795E00E9429
:10299000FB068DE695E00E94EF0674CE80E094E0A1
:1029A000A0E0B0E083CE32504109510960E070EC04
:1029B00081E090E00E94FD1729E095958795779535
:1029C00067952A95D1F7705C8F4F9F4F60934B05A9
:1029D00070934C0580934D0590934E05A6CE1092B2
:1029E000480510924705B0CE80915705B981B817B8
:1029F00009F4AECFBB2309F454C0C0904705D09072
:102A000048052CEDC216D1049CF546013FEF831A10
:102A1000930A092C000CAA08BB08D194C194D108D0
:102A20000D2C000CEE08FF08C814D904EA04FB04BE
:102A30008CF48C189D08AE08BF0841F00E942C173A
:102A4000A50194010E949A174B015C01C80CD91C86
:102A5000EA1CFB1C8091B3059091B405C80ED91EE9
:102A6000D092B405C092B30580915C058093570560
:102A700080914705909148058D3D91050CF468CFF4
:102A80000E942C1720E031E040E050E00E949A17AD
:102A90007093B4056093B30580915C0580935705EE
:102AA00057CF1092570554CF0E94E306C090960569
:102AB000D0909705E0909805F09099056C197D09E4
:102AC0008E099F09C0909205D0909305E0909405DF
:102AD000F0909505C616D706E806F906A0F5809190
:102AE0000701909108019C01201B310B8901309353
:102AF0000801209307010E94E306609396057093F6
:102B0000970580939805909399050E94E30660933A
:102B1000A0057093A1058093A2059093A30517FFCC
:102B200004C01092080110920701E0910701F09192
:102B30000801EE0FFF1FEA53F94FE491F0E0F09324
:102B4000B805E093B7053A853111E1C080910701DE
:102B5000909108011816190614F00C94CE0BE09110
:102B6000B705F091B805EE0FFF1FEC53FB4FE49152
:102B7000F0E04E0E5F1E509208014092070181E086
:102B8000809309010C949F0C0E94E306009161055B
:102B9000109162052091630530916405AB01BC0181
:102BA000401B510B620B730B80915F059091600588
:102BB000092E000CAA0BBB0B84179507A607B707B5
:102BC00010F00C94420D00910101109102018091CE
:102BD0005D0590915E05081B190B1093020100938F
:102BE00001010E94E3066093610570936205809382
:102BF0006305909364050E94E306609369057093F2
:102C00006A0580936B0590936C0517FF04C01092C2
:102C1000020110920101E0910101F0910201EE0F19
:102C2000FF1FEA53F94F0C943C0D0E94E3060091FC
:102C30002705109128052091290530912A05601B50
:102C4000710B820B930B603F79448240910510F029
:102C50000C94F90B60910A0170910B016F5F7F4F2B
:102C600070930B0160930A011092B00584E690E026
:102C70000E942C076091B00589E690E00E942C0725
:102C800080912C0580932B050C94BA080E94E306D2
:102C900000911B0510911C0520911D0530911E050A
:102CA000601B710B820B930B603F7944824091054E
:102CB00010F00C94FC0B60910401709105016F5FA2
:102CC0007F4F7093050160930401109279058EE6A1
:102CD00090E00E942C076091790583E790E00E94C4
:102CE0002C078091200580931F050C940509E09125
:102CF000B505F091B605EE0FFF1FEC53FB4FE491C5
:102D0000F0E08E1A9F0A90920801809207011092BB
:102D100009010C949F0CF09009010C94420EF12CC7
:102D20000C94F30D2091030129831ACC1982C5CB91
:102D300060E089E395E00E947A0769E083E395E02B
:102D40000E947A0761E08DE295E00E947A076AE0CE
:102D500081E295E00E947A0763E08AEA95E00E94AA
:102D60007A0764E084EA95E00E947A0766E083E7E8
:102D700095E00E947A0767E08DE695E00C947A076B
:102D80008DE695E00E941C0783E795E00E941C07F2
:102D900084EA95E00E941C078AEA95E00E941C07DD
:102DA00081E295E00E941C078DE295E00E941C07DD
:102DB00083E395E00E941C0789E395E00C941C07CF
:102DC0008F929F92AF92BF92CF92DF92EF92FF923B
:102DD000CF93DF93EC01688179818A819B816115B2
:102DE00071058105910521F464E279ED8BE597E0A9
:102DF0002DE133EF41E050E00E949A1749015A015A
:102E00009B01AC01A7EAB1E40E94B9176B017C01F8
:102E1000ACEEB4EFA50194010E94C717C60ED71EF1
:102E2000E81EF91EF7FE06C081E0C81AD108E108C5
:102E300080E8F80AC882D982EA82FB82C701B6011B
:102E40009F77DF91CF91FF90EF90DF90CF90BF9071
:102E5000AF909F908F9008958F929F92AF92BF9264
:102E6000CF92DF92EF92FF9260910C0170910D0171
:102E700080910E0190910F016115710581059105F9
:102E800021F464E279ED8BE597E02DE133EF41E049
:102E900050E00E949A1749015A019B01AC01A7EA30
:102EA000B1E40E94B9176B017C01ACEEB4EFA5014F
:102EB00094010E94C717C60ED71EE81EF91EF7FE22
:102EC00006C081E0C81AD108E10880E8F80AC0927B
:102ED0000C01D0920D01E0920E01F0920F01C7019A
:102EE000B6019F77FF90EF90DF90CF90BF90AF90AB
:102EF0009F908F90089560930C0170930D018093C3
:102F00000E0190930F010895F999FECF92BD81BDF6
:102F1000F89A992780B50895262FF999FECF1FBA00
:102F200092BD81BD20BD0FB6F894FA9AF99A0FBEF2
:102F300001960895052E97FB1EF400940E94B11788
:102F400057FD07D00E94CC1707FC03D04EF40C9419
:102F5000B11750954095309521953F4F4F4F5F4F9A
:102F6000089590958095709561957F4F8F4F9F4FF5
:102F700008950E94EE17A59F900DB49F900DA49FF9
:102F8000800D911D11240895B7FF0C94B9170E946C
:102F9000B917821B930B0895A1E21A2EAA1BBB1B23
:102FA000FD010DC0AA1FBB1FEE1FFF1FA217B30715
:102FB000E407F50720F0A21BB30BE40BF50B661F2B
:102FC000771F881F991F1A9469F7609570958095EF
:102FD00090959B01AC01BD01CF010895A29FB00166
:102FE000B39FC001A39F700D811D1124911DB29F3D
:102FF000700D811D1124911D0895DB018F939F9306
:103000000E94B917BF91AF91A29F800D911DA39F00
:10301000900DB29F900D112408950E94EE17332356
:1030200012F48A1B9B0B0C9417180E94EE17B7FF23
:103030000895821B930B0895EE0FFF1F0590F491E6
:10304000E02D099415E0C6E6D5E004C0FE010E941B
:103050001C182196C736D107C9F7F894FFCF010194
:103060000001010001010001010001000000010058
:10307000010001000100010001000000000000004B
:103080000000000000000000000000000000000040
:103090000000000000000000000000000000000030
:1030A0000000000000000000000000000000000020
:1030B0000000000000000000000000000000000010
:1030C0000000000000000000000000000000000000
:1030D00000000000000000000000000000000000F0
:1030E00000000000000000000000000000000000E0
:1030F00000000000000000000000000000000000D0
:1031000000000000000000000000000000000000BF
:1031100000000000000000000000000000000000AF
:10312000000000000000000000000000000000009F
:10313000000000000000000000000000000000008F
:10314000000000000000000000000000000000007F
:10315000000000000000000000000000000000006F
:10316000000000000000000000000000000000005F
:10317000000000000000000000000000000000004F
:10318000000000000000000000000000000000003F
:10319000000000000000000000000000000000002F
:1031A000000000000000000000000000000000001F
:1031B000000000000000000000000000000000000F
:1031C00000000000000000000000000000000000FF
:1031D00000000000000000000000000000000000EF
:1031E0000000000000000000C000C000C000C000DF
:1031F000C000C000C100C100C100C100C100C100C9
:10320000C000C000C000C000C000C000C100C100BC
:10321000C100C100C100C100C000C000C000C000AA
:10322000C000C000C100C100C100C100C100C10098
:10323000BF00BF00BF00BF00BF00BF00BF00BF0096
:10324000BF00BF00BF00BF00C000C000C000C00082
:10325000C000C000600060006000600060006000AE
:103260006100610061006100610061000000000018
:103270000000000002000400060008000A000C0024
:103280000E00100012001400160018001A001C0096
:103290001E00200022002400260028002A002C0006
:1032A0002E00300032003400360038003A003C0076
:1032B0003E00400042004400460048004A004C00E6
:1032C0004E00500052005400560058005A005C0056
:1032D0005E00600062006400660068006A006C00C6
:1032E0006E00700072007400760078007A007C0036
:1032F0007E00800082008400860088008A008C00A6
:103300008E00900092009400960098009A009C0015
:103310009E00A200A600AA00AE00B200B600BA004D
:10332000BE00C200C600CA00CE00D200D600DA003D
:10333000DE00E200E600EA00EE00F200F600FA002D
:10334000FE00020106010E0116011E0126012E01DA
:1033500036013E0146014E0156015E0166016E01D5
:1033600076017E0186018E0196019E01A601AE01C5
:10337000B601BE01C601CE01D601DE01E601EE01B5
:10338000F601FE0106020E0216021E0226022E029F
:1033900036023E0246024E0256025E0266026E028D
:1033A00076027E0286028E0296029E02A602AE027D
:1033B000B602BE02C602CE02D602DE02E602EE026D
:1033C000F602FE0206030E0316031E0326032E0357
:1033D00036033E0346034E0356035E0366036E0345
:1033E00076037E0386038E0396039E03A603AE0335
:1033F000B603BE03C603CE03D603DE03E603EE0325
:10340000F603FE0306040E0416041E0426042E040E
:1034100036043E0446044E0456045E0466046E04FC
:1034200076047E0486048E049604A004AA04B404E0
:10343000BE04C804D204DC04E604F004FA04040563
:103440000E05180522052C05360540054A055405CC
:103450005E05680572057C05860590059A05A4053C
:10346000AE05B805C205CC05D605E005EA05F405AC
:107E0000112484B714BE81FFF0D085E080938100F7
:107E100082E08093C00088E18093C10086E0809377
:107E2000C20080E18093C4008EE0C9D0259A86E02C
:107E300020E33CEF91E0309385002093840096BBD3
:107E4000B09BFECF1D9AA8958150A9F7CC24DD24C4
:107E500088248394B5E0AB2EA1E19A2EF3E0BF2EE7
:107E6000A2D0813461F49FD0082FAFD0023811F036
:107E7000013811F484E001C083E08DD089C08234E0
:107E800011F484E103C0853419F485E0A6D080C0E4
:107E9000853579F488D0E82EFF2485D0082F10E0AE
:107EA000102F00270E291F29000F111F8ED06801E7
:107EB0006FC0863521F484E090D080E0DECF843638
:107EC00009F040C070D06FD0082F6DD080E0C81688
:107ED00080E7D80618F4F601B7BEE895C0E0D1E017
:107EE00062D089930C17E1F7F0E0CF16F0E7DF06D8
:107EF00018F0F601B7BEE89568D007B600FCFDCFD4
:107F0000A601A0E0B1E02C9130E011968C91119780
:107F100090E0982F8827822B932B1296FA010C0160
:107F200087BEE89511244E5F5F4FF1E0A038BF0790
:107F300051F7F601A7BEE89507B600FCFDCF97BE46
:107F4000E89526C08437B1F42ED02DD0F82E2BD052
:107F50003CD0F601EF2C8F010F5F1F4F84911BD097
:107F6000EA94F801C1F70894C11CD11CFA94CF0C13
:107F7000D11C0EC0853739F428D08EE10CD085E9AC
:107F80000AD08FE07ACF813511F488E018D01DD067
:107F900080E101D065CF982F8091C00085FFFCCF94
:107FA0009093C60008958091C00087FFFCCF809118
:107FB000C00084FD01C0A8958091C6000895E0E648
:107FC000F0E098E1908380830895EDDF803219F02E
:107FD00088E0F5DFFFCF84E1DECF1F93182FE3DFCA
:107FE0001150E9F7F2DF1F91089580E0E8DFEE27F6
:047FF000FF270994CA
:027FFE00040479
:00000001FF
