:020000040000FA
:100000000C9467050C948F050C948F050C948F0548
:100010000C948F050C948F050C948F050C948F0510
:100020000C948F050C948F050C948F050C948F0500
:100030000C948F050C948F050C948F050C948F05F0
:100040000C9418070C948F050C948F050C948F0555
:100050000C948F050C948F050C948F050C948F05D0
:100060000C948F050C948F050000000023002600DF
:10007000290000000000240027002A0000000000E2
:10008000250028002B0004040404040404040202D4
:100090000202020203030303030301020408102007
:1000A0004080010204081020010204081020000012
:1000B0000008000201000003040700000000000027
:1000C0000000DD00DD00DD00DD00DD00DD004700BB
:1000D0004500440043004200410040003E003D0016
:1000E0003C003B003A00390038003700360035004C
:1000F0003500340033003200310030002F002F0073
:100100002E002D002C002B002B002A002900280097
:1001100028002700260026002500240024002300B4
:100120002300220021002100200020001F001F00CA
:100130001E001E001D001D001C001C001B001B00DB
:100140001A001A00190019001800180018001700EA
:1001500017001600160016001500150015001400F3
:1001600014001400130013001300120012001200F8
:1001700011001100110010001000100010000F00FD
:100180000F000F000F000E000E000E000E000D00FD
:100190000D000D000D000C000C000C000C000C00FC
:1001A0000B000B000B000B000B000A000A000A00FA
:1001B0000A000A000A0009000900090009000900F4
:1001C00009000800080008000800080008000800EE
:1001D00008000700070007000700070007000700E6
:1001E00007000600060006000600060006000600DE
:1001F00006000600060005000500050005000500D4
:1002000005000500050005000500050004000400C8
:1002100004000400040004000400040004000400BE
:1002200004000400040004000400030003000300B1
:10023000030003000300030003000300070007009E
:100240000700070007000700070007000700070076
:10025000070007000600060006000600060006006C
:100260000600060006000600060006000500050060
:100270000500050005000500050005000500050056
:10028000050005000400040004000400040004004C
:100290000300030003000300030003000300030046
:1002A000030003000300030002000200020002003A
:1002B000020002000200020002000200020002002E
:1002C0000100010001000100010001000100010026
:1002D0000100010001000100010001000100010016
:1002E0000100010001000100010001000100010006
:1004C0000100010000000000000000000000010029
:1004D0000100010001000100010001000100020013
:1004E00002000200020002000200030003000300F9
:1004F00003000300030003000300030003000400E3
:1005000004000400040004000400040005000500C9
:1005100005000500050005000500060006000600B0
:100520000600060007000700070007000700070095
:10053000080008000800080008000800080009007A
:100540000900090009000A000A000A000A000A005E
:100550000A000B000B000B000B000C000C000C0041
:100560000D000D000D000D000D000D000E000E0021
:100570000E000E000F000F000F000F000F00100004
:1005800010001000110011001100120012001200E2
:1005900012001300130013001300140014001400C1
:1005A000150015001500160016001600170017009C
:1005B00017001800180018001900190019001A0077
:1005C0001A001B001B001B001C001C001D001D004E
:1005D0001D001E001E001F001F001F002000200025
:1005E00021002100220022002200230023002400F9
:1005F00025002500260026002600270027002800C9
:10060000290029002A002A002B002C002C002D0094
:100610002D002E002F00300031003100320032005A
:10062000330034003400350037003700380039001B
:1006300039003A003B003C003D003E003F004000D6
:100640004100420043004400450046004700480086
:1006500049004B004C004E004F004F00510052002B
:10066000540056005600580059005B005D005E00C3
:10067000600062006300650068006A006B006D0046
:100680006F0072007400770079007B007E008000AC
:100690008300860089008B008E00910094009900F1
:1006A0009C009F00A300A800AB00B100B400B800FC
:1006B000BE00C200C800CF00D300DA00E200E700AD
:1006C000EE00F700FF000000000001000100010043
:1006D0000200020002000300030004000400040002
:1006E00005000500050006000600060007000700DB
:1006F000080008000800090009000A000A000A00B2
:100700000B000B000C000C000C000D000D000E0087
:100710000E000E000F000F0010001000110011005D
:100720001100120012001300130014001400150031
:100730001500160016001600170017001800180004
:10074000190019001A001A001B001B001C001C00D5
:100750001D001D001E001E001F001F0020002000A5
:100760002100220022002300230024002400250071
:10077000250026002600270028002800290029003F
:100780002A002B002B002C002C002D002E002E0008
:100790002F002F00300031003100320033003300D1
:1007A0003400350035003600370037003800390096
:1007B00039003A003B003C003C003D003E003E005A
:1007C0003F0040004100410042004300440045001A
:1007D0004500460047004800490049004A004B00D8
:1007E0004C004D004E004E004F0050005100520092
:1007F0005300540055005600570057005800590048
:100800005A005B005C005D005E005F0060006100FC
:1008100062006300640065006600680069006A00A9
:100820006B006C006D006E006F0071007200730051
:10083000740075007600780079007A007B007D00F6
:100840007E007F0081008200830085008600870093
:1008500089008A008C008D008F0090009100930029
:1008600094009600980099009B009C009E00A000B8
:10087000A100A300A500A600A800AA00AC00AD003E
:10088000AF00B100B300B500B700B900BB00BD00B8
:10089000BF00C100C300C500C700C900CB00CD0028
:1008A000D000D200D400D600D900DB00DE00E0008A
:1008B000E200E500E700EA00ED00EF00F200F500DD
:1008C000F700FA00FD000001000003000600090027
:1008D0000B000E0011001300160019001B001E0073
:1008E00020002200250027002A002C002E003000C6
:1008F00033003500370039003B003D003F00410028
:1009000043004500470049004B004D004F00510097
:1009100053005400560058005A005B005D005F0011
:100920006000620064006500670068006A006C0097
:100930006D006F0070007100730074007600770026
:1009400079007A007B007D007E007F0081008200BC
:10095000830085008600870088008A008B008C0059
:100960008D008E008F0091009200930094009500FE
:100970009600970098009A009B009C009D009E00A6
:100980009F00A000A100A200A300A400A500A60053
:10099000A700A800A900A900AA00AB00AC00AD0008
:1009A000AE00AF00B000B100B200B200B300B400BE
:1009B000B500B600B700B700B800B900BA00BB0078
:1009C000BB00BC00BD00BE00BF00BF00C000C10036
:1009D000C200C200C300C400C400C500C600C700F6
:1009E000C700C800C900C900CA00CB00CB00CC00BA
:1009F000CD00CD00CE00CF00CF00D000D100D1007F
:100A0000D200D200D300D400D400D500D500D60047
:100A1000D700D700D800D800D900DA00DA00DB0010
:100A2000DB00DC00DC00DD00DD00DE00DE00DF00DE
:100A3000E000E000E100E100E200E200E300E300AA
:100A4000E400E400E500E500E600E600E700E7007A
:100A5000E800E800E900E900EA00EA00EA00EB004B
:100A6000EB00EC00EC00ED00ED00EE00EE00EF001E
:100A7000EF00EF00F000F000F100F100F200F200F2
:100A8000F200F300F300F400F400F400F500F500C8
:100A9000F600F600F600F700F700F800F800F8009E
:100AA000F900F900FA00FA00FA00FB00FB00FB0075
:100AB000FC00FC00FC00FD00FD00FE00FE00FE004E
:100AC000FF00FF00FF0000010001D617EA17112404
:100AD0001FBECFEFD8E0DEBFCDBF15E0A0E0B1E094
:100AE000E2E9F2E302C005900D92AE31B107D9F709
:100AF00025E0AEE1B5E001C01D92A13BB207E1F7F0
:100B000015E0C6E6D5E004C02197FE010E94361923
:100B1000C536D107C9F70E9486070C943C190C947E
:100B2000000090E0FC01E255FF4F2491FC01E656E5
:100B3000FF4F3491FC01EA57FF4FE491EE23C9F0D7
:100B4000222339F0233001F1A8F4213019F12230A9
:100B500029F1F0E0EE0FFF1FE458FF4FA591B4918B
:100B60008FB7F894EC91611126C030953E233C93E9
:100B70008FBF08952730A9F02830C9F0243049F7F5
:100B8000809180008F7D03C0809180008F7780935B
:100B90008000DFCF84B58F7784BDDBCF84B58F7DB8
:100BA000FBCF8091B0008F778093B000D2CF80913F
:100BB000B0008F7DF9CF3E2BDACFCF93DF9390E05B
:100BC000FC01E656FF4F24918A579F4FFC01849108
:100BD0008823C9F090E0880F991FFC01EE58FF4F61
:100BE000A591B491FC01E458FF4FC591D4916111D6
:100BF0000DC09FB7F8948C91209582238C938881A7
:100C0000282328839FBFDF91CF910895623051F44C
:100C10009FB7F8943C91822F809583238C93E88131
:100C20002E2BEFCF8FB7F894EC912E2B2C938FBFF8
:100C3000EACF1F93CF93DF93182FEB0161E00E945F
:100C4000DD05209739F460E0812FDF91CF911F916E
:100C50000C949105CF3FD10511F461E0F5CFE12F60
:100C6000F0E0E255FF4FE491E33031F140F4E13040
:100C7000B1F0E230E1F0C038D1057CF7E4CFE730E5
:100C800029F1E83059F1E430B1F7809180008062B9
:100C900080938000D0938B00C0938A0004C084B5F9
:100CA000806884BDC7BDDF91CF911F91089584B541
:100CB000806284BDC8BDF7CF80918000806880933A
:100CC0008000D0938900C0938800EDCF8091B00060
:100CD00080688093B000C093B300E5CF8091B000EE
:100CE00080628093B000C093B400DDCF8E508064EA
:100CF00080937C0080917A00806480937A00809158
:100D00007A0086FDFCCF809178009091790008955B
:100D10003FB7F8948091230590912405A091250573
:100D2000B091260526B5A89B05C02F3F19F0019666
:100D3000A11DB11D3FBFBA2FA92F982F8827BC0135
:100D4000CD01620F711D811D911D42E0660F771F5D
:100D5000881F991F4A95D1F708958F929F92AF925D
:100D6000BF92CF92DF92EF92FF920E9488064B01D2
:100D70005C0180E1C82E87E2D82EE12CF12C0E9484
:100D80008806681979098A099B09683E73408105BC
:100D90009105A8F321E0C21AD108E108F10888EE14
:100DA000880E83E0981EA11CB11CC114D104E1047B
:100DB000F10429F7FF90EF90DF90CF90BF90AF90B4
:100DC0009F908F9008952FB7F89460911F057091B0
:100DD000200580912105909122052FBF0895CF9382
:100DE000DF93DC01EC91F0E0EE0FFF1FE859FF4FBD
:100DF000C591D491988111968C91982381E009F442
:100E000080E0DF91CF910895FC01A281B3818C91A4
:100E10009181909598239C93A481B5819C91818127
:100E2000809589238C9308950C94A6180C949E1891
:100E30001F920F920FB60F9211242F933F938F930F
:100E40009F93AF93BF9380911F0590912005A09130
:100E50002105B091220530911E0523E0230F2D3787
:100E600058F50196A11DB11D20931E0580931F0505
:100E700090932005A0932105B0932205809123052E
:100E800090912405A0912505B09126050196A11DFC
:100E9000B11D8093230590932405A0932505B0935D
:100EA0002605BF91AF919F918F913F912F910F9008
:100EB0000FBE0F901F90189526E8230F0296A11DD4
:100EC000B11DD2CFDC0170E0FB01E656FF4FE4918B
:100ED0001196EC9311976A577F4FFB0124912C9345
:100EE00030E0220F331FF901EE58FF4F85919491A6
:100EF00013969C938E931297F901E458FF4F8591B6
:100F0000949115969C938E9314970895CF93DF93A5
:100F1000CDB7DEB72E970FB6F894DEBF0FBECDBFAC
:100F2000789484B5826084BD84B5816084BD85B5C4
:100F3000826085BD85B5816085BD80916E008160D0
:100F400080936E0010928100809181008260809376
:100F50008100809181008160809381008091800078
:100F60008160809380008091B10084608093B100A3
:100F70008091B00081608093B00080917A0084609D
:100F800080937A0080917A00826080937A008091C9
:100F90007A00816080937A0080917A0080688093E3
:100FA0007A001092C10085B5887F816085BD8091EF
:100FB000B100887F81608093B10080918100887F3B
:100FC00081608093810084E893E00E9416078F3F40
:100FD00009F0CAC421E030E03093170120931601D4
:100FE0008FEF9FEF909315018093140130930B01C5
:100FF00020930A01909309018093080183E090E017
:10100000909313018093120184E090E0909311017A
:101010008093100186E090E0909307018093060191
:1010200087E090E0909305018093040163E088E7F6
:1010300090E00E94140764E08DE790E00E9414079E
:1010400066E082E890E00E94140767E087E890E09D
:101050000E94140760E084E690E00E94140760E0BC
:101060008EE690E00E94140760E089E690E00E941E
:10107000140760E083E790E00E9414076AE284E8C6
:1010800093E00E94140760E08EE00E94DD0560E0BE
:101090008FE00E94DD0561E08BE00E94DD0550914C
:1010A00012015D8361E0852F0E94DD050091100132
:1010B00061E0802F0E94DD0560E084E10E94DD0593
:1010C00060E085E10E94DD0562E081E00E94DD05CF
:1010D00062E080E00E94DD0560E080E10E94DD05C5
:1010E00060E081E10E94DD0561E085E00E94DD05B0
:1010F00080910601898361E00E94DD051091040161
:1011000061E0812F0E94DD0560E082E10E94DD0543
:1011100060E083E10E94DD0562E08AE00E94DD0577
:1011200062E089E00E94DD0561E08D810E94910509
:101130000E94AD0661E0802F0E9491050E94AD06DD
:1011400060E08D810E9491050E94AD0661E0898179
:101150000E9491050E94AD0661E0812F0E949105D9
:101160000E94AD0660E089810E9491050E94AD0653
:10117000412C512C320153943EEF232E312C89E324
:1011800095E00E94EF0691E0811190E09093380580
:10119000811103C0A1E0A0930C01209137059217A3
:1011A00081F081110C945A170E94E3066093330575
:1011B000709334058093350590933605B1E0B09374
:1011C000370580913805882309F46DC00E94E30635
:1011D000C0903305D0903405E0903505F090360589
:1011E0006C197D098E099F09613F79448240910500
:1011F000C0F00E94E3066C197D098E099F096032D8
:10120000714A8740910568F441E04093A80561E088
:1012100089E690E00E94140780913805882309F43C
:1012200042C00E94E30600913305109134052091DD
:10123000350530913605601B710B820B930B6132C3
:10124000714A8740910578F11092A8051092170114
:101250001092160160E089E690E00E9414078091E8
:10126000120190911301609110012091110160937E
:10127000120120931301909311018093100188E7CC
:1012800090E00E941407609110018DE790E00E94A9
:1012900014070E94E306609333057093340580932E
:1012A00035059093360580911601909117010397AB
:1012B00024F010921701109216018DE295E00E9421
:1012C000EF0691E0811190E090932C05811103C00D
:1012D000A1E0A093000120912B05921781F08111CC
:1012E0000C948B170E94E3066093270570932805E2
:1012F0008093290590932A05B1E0B0932B05809146
:101300002C05882309F46DC00E94E306C0902705D0
:10131000D0902805E0902905F0902A056C197D09E8
:101320008E099F09613F794482409105C0F00E9477
:10133000E3066C197D098E099F096032714A874066
:10134000910568F441E040937B0561E083E790E01C
:101350000E94140780912C05882309F442C00E9442
:10136000E306009127051091280520912905309169
:101370002A05601B710B820B930B6132714A874007
:10138000910578F110927B0510920B0110920A01E1
:1013900060E083E790E00E9414078091060190913D
:1013A00007016091040120910501609306012093DB
:1013B0000701909305018093040182E890E00E9468
:1013C00014076091040187E890E00E9414070E94CE
:1013D000E306609327057093280580932905909371
:1013E0002A0580910A0190910B01039724F0109235
:1013F0000B0110920A0185E495E00E94EF068E87AA
:1014000081E08D839E8591111D82AD81A09393050E
:101410008FE395E00E94EF0691E0811190E09093B8
:101420006A058091160190911701039724F010929C
:1014300017011092160184E10E9476069C01990F13
:10144000440B550B345041095109A0EFBAE00E94FA
:10145000D31820E034E040E050E00E94B4185095EA
:101460004095309521953F4F4F4F5F4FDA01C901AD
:1014700088579540A109B1098E839F83A887B987B2
:10148000909385058093840585E10E9476069C01F2
:10149000990F440B550B345041095109A0EFBAE0A4
:1014A0000E94D31820E034E040E050E00E94B418DD
:1014B00050954095309521953F4F4F4F5F4FDA0142
:1014C000C90188579540A109B10989839A83AB83E3
:1014D000BC8390937F0580937E058EE00E94760604
:1014E0000E811F81080F191F8FE00E9476067C0174
:1014F000012E000C220B330BC901B80109E0660F65
:10150000771F881F991F0A95D1F720E034E040E04B
:1015100050E00E94B41849013093520520935105C0
:1015200069817A816E0D7F1D072E000C880B990B47
:1015300029E0660F771F881F991F2A95D1F720E0B1
:1015400034E040E050E00E94B418C90130935005E7
:1015500020934F05A1E08A16A2E09A0634F020E01D
:1015600032E030935205209351052091510530917E
:10157000520537FF04C01092520510925105813078
:10158000924034F040E052E05093500540934F05B4
:1015900080914F059091500597FF04C0109250051F
:1015A00010924F0580915105909152059B878A8733
:1015B000A0914F05B0915005BD87AC8782E10E9494
:1015C00076069C01990F440B550B34504109510983
:1015D000A0EFBAE00E94D31820E034E040E050E0F1
:1015E0000E94B41850954095309521953F4F4F4F2C
:1015F0005F4F69017A01B8E7CB1AB5E0DB0AE10871
:10160000F108D0925C05C0925B0583E10E947606EA
:101610009C01990F440B550B345041095109A0EF1F
:10162000BAE00E94D31820E034E040E050E00E948D
:10163000B41850954095309521953F4F4F4F5F4FCF
:1016400049015A0188E7881A85E0980AA108B1087B
:10165000909256058092550580E10E9476067C01A5
:10166000EC0CFD1C81E10E9476066C01B701FF0CB9
:10167000880B990BB9E0660F771F881F991FBA95E1
:10168000D1F720E034E040E050E00E94B418790146
:1016900030934E0520934D05C601880D991DBC0160
:1016A000990F880B990B19E0660F771F881F991FF8
:1016B0001A95D1F720E034E040E050E00E94B418E1
:1016C000C90130934C0520934B05A1E0EA16A2E036
:1016D000FA0634F020E032E030934E0520934D05B9
:1016E00020914D0530914E0537FF04C010924E05F4
:1016F00010924D058130924034F040E052E050931A
:101700004C0540934B0580914B0590914C0597FFFC
:1017100004C010924C0510924B0520914D0530915C
:101720004E0580914B0590914C05EA85FB85EE0FA7
:10173000FF1FAA85BB85AB2B89F0DF01A45EBE4FDE
:101740004D915C91052E000C660B770B4093A00524
:101750005093A1056093A2057093A305EE53FF4F2C
:10176000E4910E2F10E010939F0500939E05EC85E9
:10177000FD85EE0FFF1F4C855D85452B89F0DF0150
:10178000A45EBE4F4D915C91052E000C660B770B4D
:10179000409396055093970560939805709399052B
:1017A000EE53FF4FE4918E2E912C909295058092EE
:1017B0009405F901EE0FFF1F232B49F0DF01A45E12
:1017C000BE4F2D913C913093760520937505EE53D5
:1017D000FF4FE491F0E0F0937405E0937305FC0192
:1017E000EE0FFF1F892B49F0DF01A45EBE4F8D91E4
:1017F0009C9190936E0580936D05EE53FF4FE4919D
:10180000F0E0F0936C05E0936B058091A8058130C2
:1018100009F48EC3E0901601F090170151E0E5162F
:10182000F10409F4FEC082E0E816F10409F46EC286
:10183000EF2809F09EC18091140190911501892B28
:1018400071F061E0809112010E94910561E0809148
:1018500010010E9491051092150110921401A090A0
:10186000AF05B090B0052CE430E0D5010E942F19EF
:10187000A30192010E94B41869017A0184EBC80E99
:10188000D11CE11CF11CD0929205C092910520E57B
:1018900030E0D5010E942F19A30192010E94B418D3
:1018A00029833A834B835C833093900520938F0583
:1018B00080910F01882311F40C9499160E94E3067D
:1018C0008090A4059090A505A090A605B090A705CE
:1018D000681979098A099B098090A0059090A10553
:1018E000A090A205B090A30586169706A806B90693
:1018F00098F5E0910D01F0910E010E0F1F1F10934E
:101900000E0100930D010E94E3066093A4057093FD
:10191000A5058093A6059093A7050E94E306609312
:101920009A0570939B0580939C0590939D050F3FAE
:10193000110524F030920E0120920D01E0910D016D
:10194000F0910E01EE0FFF1FE853F74FE491F0E026
:10195000F093B005E093AF055E8551110C94BC1770
:10196000B1E0B0930F0105C184E690E00E94160734
:1019700090E090931701809316012FEF3FEF309383
:101980001501209314018EE690E00E94160790E066
:1019900090930B0180930A014FEF5FEF5093090181
:1019A0004093080189E690E00E94160791E08111BA
:1019B00001C090E09093A80583E790E00E9416078D
:1019C00091E0811101C090E090937B0588E790E061
:1019D0000E94160790E090931301809312018DE707
:1019E00090E00E94160790E09093110180931001FF
:1019F00082E890E00E94160790E0909307018093A0
:101A0000060187E890E00E94160790E09093050198
:101A10008093040138CB10923705D3CB10922B055D
:101A20006ECC8091140190911501019771F061E0E5
:101A3000809112010E94910560E0809110010E9446
:101A40009105F0921501E092140180910F01882315
:101A500009F444C00E94E306C090A405D090A505F7
:101A6000E090A605F090A7056C197D098E099F09E5
:101A7000C090A005D090A105E090A205F090A3052C
:101A8000C616D706E806F90608F06AC0E091AF0569
:101A9000F091B0050E0F1F1F1093B0050093AF0516
:101AA0000E94E3066093A4057093A5058093A605A4
:101AB0009093A7050E94E30660939A0570939B0597
:101AC00080939C0590939D050F3F11050CF448C031
:101AD00010920F013092B0052092AF050E94E306EC
:101AE00000919A0510919B0520919C0530919D05D0
:101AF000601B710B820B930B00919605109197055B
:101B0000209198053091990506171707280739077E
:101B100038F50091AF051091B00508191909109317
:101B2000B0050093AF050E94E30660939A05709399
:101B30009B0580939C0590939D050E94E30660930E
:101B4000A4057093A5058093A6059093A70517FF9C
:101B500007C091E090930F011092B0051092AF056D
:101B6000AE85A11106C010920F011092B00510921F
:101B7000AF0580917B05813009F47CC600910A0194
:101B800010910B010130110509F430C40230110528
:101B900009F439C5012B09F0DEC480910801909148
:101BA0000901892B71F061E0809106010E94910585
:101BB00061E0809104010E94910510920901109248
:101BC00008010091AB051091AC052CE430E0D80180
:101BD0000E942F19A30192010E94B41869017A0191
:101BE00084EBC80ED11CE11CF11CD0926905C09297
:101BF000680520E530E0D8010E942F19A301920169
:101C00000E94B418490130936705209366059091AE
:101C100003019983992311F40C9409170E94E30698
:101C200000917705109178052091790530917A051A
:101C3000AB01BC01401B510B620B730B809175050E
:101C400090917605092E000CAA0BBB0B8417950703
:101C5000A607B707B8F50091010110910201809124
:101C6000730590917405080F191F109302010093DA
:101C700001010E94E30660937705709378058093D5
:101C8000790590937A050E94E30660936F0570933F
:101C9000700580937105909372050F3F110524F034
:101CA0003092020120920101E0910101F0910201C4
:101CB000EE0FFF1FE853F74FE491F0E0F093AC050F
:101CC000E093AB0580916A05882309F4BDC5A9811D
:101CD000A111B6C580910101909102011816190653
:101CE0000CF0AEC5E091AB05F091AC05EE0FFF1F17
:101CF000EC53FB4FE491F0E08E0E9F1E9092020198
:101D000080920101B1E0B093030125C480911401D8
:101D100090911501029771F060E0809112010E948C
:101D2000910561E0809110010E949105F0921501EA
:101D3000E0921401E090AF05F090B0052CE430E0A3
:101D4000D7010E942F19A30192010E94B4182C54AC
:101D50003F4F4F4F5F4F309392052093910520E501
:101D600030E0D7010E942F19A30192010E94B418FC
:101D700069013093900520938F0580910F01B12C5C
:101D8000882309F457C00E94E3062091A4053091EE
:101D9000A5054091A6055091A705621B730B840B06
:101DA000950B2091A0053091A1054091A20550917D
:101DB000A305B0900F01261737074807590708F009
:101DC00086C0E0910D01F0910E010E0F1F1F1093C0
:101DD0000E0100930D010E94E3066093A405709329
:101DE000A5058093A6059093A7050E94E30660933E
:101DF0009A0570939B0580939C0590939D050F3FDA
:101E0000110534F030920E0120920D0110920F0155
:101E1000E0910D01F0910E01EE0FFF1FE853F74F17
:101E2000E491F0E0F093B005E093AF05B0900F01BE
:101E3000B1104DC00E94E30600919A0510919B05D8
:101E400020919C0530919D05601B710B820B930BBB
:101E5000009196051091970520919805309199056C
:101E6000061717072807390790F500910D01109103
:101E70000E010819190910930E0100930D010E941B
:101E8000E30660939A0570939B0580939C0590935D
:101E90009D050E94E3066093A4057093A5058093B9
:101EA000A6059093A70517FF04C010920E0110928B
:101EB0000D01E0910D01F0910E01EE0FFF1FEA53AD
:101EC000F94FE491F0E0F093B005E093AF05809115
:101ED0008E05BD818B1709F44CCE2E85211125C0AE
:101EE000B1101DC080910D0190910E0118161906B8
:101EF000B4F4E091AF05F091B005EE0FFF1FEC5385
:101F0000FB4FE491F0E0CE0EDF1ED0920E01C092A6
:101F10000D0131E030930F0130938E052ACE41E060
:101F200040930F0140938E0524CE10928E0521CE52
:101F30002E85211102C010920C010E94E30600912F
:101F40008A0510918B0520918C0530918D05601BC1
:101F5000710B820B930B613177428105910598F0EB
:101F600080918805909189050196909389058093C9
:101F700088050E94E30660938A0570938B05809321
:101F80008C0590938D058091880590918905029725
:101F900024F010928905109288050091880510910F
:101FA000890580918605909187058017910791F0AA
:101FB0000115110509F08BC160E0809112010E94AA
:101FC000910561E0809110010E94910510938705B1
:101FD000009386058EE00E9476064E815F81840F15
:101FE000951F092E000CAA0BBB0B813054E09507FE
:101FF000A105B1050CF076C1809380059093810511
:10200000A0938205B093830580918005909181050E
:10201000A0918205B0918305B7FF08C0109280059A
:1020200010928105109282051092830520918005FF
:10203000309181054091820550918305211592E0F0
:102040003907410551050CF052C1AFEFBFE30E94C3
:10205000D31820E032E040E050E00E94B4182F5F37
:102060003F4F4F4F5F4F2093800530938105409342
:102070008205509383058FE00E947606A981BA817C
:102080008A0F9B1F97FD4FC190937D0580937C0520
:1020900080917C0590917D058130944034F020E062
:1020A00034E030937D0520937C058FE00E94760616
:1020B00049815A81840F951F81159240B4F4A091F3
:1020C0007C05B0917D052EE130E00E942F1920E0C3
:1020D00032E040E050E00E94B4182E5F3F4F4F4F77
:1020E0005F4F30937D0520937C058FE00E9476063C
:1020F000A981BA818A0F9B1F81159240ECF0209133
:102100007C0530917D05032E000C440B550B32509D
:1021100041095109A0EEB0E00E94D31820E032E05E
:1021200040E050E00E94B418205E3F4F4F4F5F4F99
:1021300030937D0520937C0580917C0590917D05F1
:102140001816190634F021E030E030937D05209315
:102150007C0580917C0590917D058130914034F023
:1021600040E051E050937D0540937C0580910C0147
:10217000882309F4DDC0C0907C05D0907D055CED1E
:10218000C516D1040CF054C00E94E3060091A405CA
:102190001091A5052091A6053091A705601B710B34
:1021A000820B930B0091800510918105209182058F
:1021B000309183050617170728073907C8F5460128
:1021C0008FEF881A980A092C000CAA08BB08D19432
:1021D000C194D1080D2C000CEE08FF08C814D904D6
:1021E000EA04FB048CF48C189D08AE08BF0841F08B
:1021F0000E944618A50194010E94B4184B015C018D
:10220000C80CD91CEA1CFB1C8091AF059091B0054D
:10221000C80ED91ED092B005C092AF050E94E30649
:102220006093A4057093A5058093A6059093A705D8
:1022300080917C0590917D058D3D91057CF10E94FA
:10224000E3060091A4051091A5052091A605309103
:10225000A705601B710B820B930B009180051091F9
:1022600081052091820530918305061717072807FD
:102270003907A0F40E944618A30192010E94B418E5
:102280007093B0056093AF050E94E3066093A405C8
:102290007093A5058093A6059093A7058091AF053F
:1022A0009091B00597FF04C01092B0051092AF0551
:1022B0008091AF059091B0058B3F91050CF459CCFE
:1022C0004AEF50E05093B0054093AF0552CC013037
:1022D000110509F07BCE61E0809112010E94910509
:1022E00060E070CE80E094E0A0E0B0E085CE3250B7
:1022F0004109510960E070EC81E090E00E941719FB
:1023000019E095958795779567951A95D1F7705C43
:102310008F4F9F4F60938005709381058093820556
:1023200090938305A8CE10927D0510927C05B0CEC7
:1023300080918E059D81891709F4B0CFAE85A111DA
:1023400052C0C0907C05D0907D05BCEDCB16D10469
:102350009CF546012FEF821A920A092C000CAA085C
:10236000BB08D194C194D1080D2C000CEE08FF08D5
:10237000C814D904EA04FB048CF48C189D08AE0838
:10238000BF0841F00E944618A50194010E94B418AC
:102390004B015C01C80CD91CEA1CFB1C8091AF05E9
:1023A0009091B005C80ED91ED092B005C092AF056D
:1023B0008091930580938E0580917C0590917D0599
:1023C0008D3D91050CF46ACF0E944618A30192013D
:1023D0000E94B4187093B0056093AF058091930587
:1023E00080938E055BCF10928E0558CF80910801A7
:1023F00090910901019771F061E0809106010E94BE
:10240000910560E0809104010E94910510930901FB
:102410000093080180910301882309F44AC00E94B7
:10242000E3060091770510917805209179053091A8
:102430007A05AB01BC01401B510B620B730B809101
:10244000750590917605092E000CAA0BBB0B84171D
:102450009507A607B70708F074C00091AB05109167
:10246000AC058091730590917405080F191F1093A6
:10247000AC050093AB050E94E3066093770570936B
:1024800078058093790590937A050E94E30660931E
:102490006F057093700580937105909372050F3FDF
:1024A00011050CF44EC0109203013092AC0520923D
:1024B000AB050E94E30600916F0510917005209115
:1024C000710530917205AB01BC01401B510B620BD1
:1024D000730B80916D0590916E05092E000CAA0B6F
:1024E000BB0B84179507A607B70758F50091AB05F6
:1024F0001091AC0580916B0590916C05081B190B30
:102500001093AC050093AB050E94E30660936F0542
:102510007093700580937105909372050E94E30695
:1025200060937705709378058093790590937A0589
:1025300017FF07C051E0509303011092AC051092B1
:10254000AB0580916A05882331F010920301109247
:10255000AC051092AB058091AF059091B0058F3F0F
:10256000910539F034F02FEF30E03093B00520932F
:10257000AF058091AF059091B00597FF04C0109210
:10258000B0051092AF05E090AF05F090B00597014F
:10259000A1E0BFEF0E9427192FEF30E040E050E0AC
:1025A0000E94B41821503F4F4F4F5F4F3093AE05FC
:1025B0002093AD050091AB051091AC059801A1E009
:1025C000BFEF0E9427192FEF30E040E050E00E945B
:1025D000B41821503F4F4F4F5F4F3093AA052093BF
:1025E000A905B7018BE00E941906B80185E00E9499
:1025F000190640E050E0452B11F40C94BF080E94EE
:1026000000000C94BC088091080190910901029788
:1026100071F060E0809106010E94910561E0809177
:1026200004010E9491051093090100930801009193
:10263000AB051091AC052CE430E0D8010E942F19B5
:10264000A30192010E94B4182C543F4F4F4F5F4F8B
:10265000309369052093680520E530E0D8010E9499
:102660002F19A30192010E94B418690130936705E4
:102670002093660580910301882309F495C40E9484
:10268000E306009177051091780520917905309146
:102690007A05AB01BC01401B510B620B730B80919F
:1026A000750590917605092E000CAA0BBB0B8417BB
:1026B0009507A607B70708F073C4009101011091B0
:1026C00002018091730590917405080F191F1093F2
:1026D0000201009301010E94E30660937705709365
:1026E00078058093790590937A050E94E3066093BC
:1026F0006F057093700580937105909372050F3F7D
:10270000110534F030920201209201011092030170
:10271000E0910101F0910201EE0FFF1FE853F74F26
:10272000E491F0E0F093AC05E093AB0580910301F8
:102730008983811153C00E94E30600916F051091B7
:1027400070052091710530917205AB01BC01401BF1
:10275000510B620B730B80916D0590916E05092EE4
:10276000000CAA0BBB0B84179507A607B707B0F59B
:10277000009101011091020180916B0590916C050F
:10278000081B190B10930201009301010E94E3063C
:1027900060936F0570937005809371059093720537
:1027A0000E94E3066093770570937805809379051E
:1027B00090937A0517FF04C0109202011092010154
:1027C000E0910101F0910201EE0FFF1FEA53F94F72
:1027D000E491F0E0F093AC05E093AB0580916A05DD
:1027E00090916505981709F4B6CE882331F1998147
:1027F00091111DC0809101019091020118161906D6
:10280000B4F4E091AB05F091AC05EE0FFF1FEC5373
:10281000FB4FE491F0E0CE0EDF1ED0920201C09299
:102820000101A1E0A0930301A093650594CEB1E05E
:10283000B0930301B09365058ECE109265058BCEE3
:1028400021E02093030187CE3981332381F0E09189
:10285000A905F091AA05EE0FFF1FEC53FB4FE49181
:10286000F0E0CE1ADF0AD0920201C092010110926C
:10287000030171CE40916A05498341111092000114
:102880000E94E306009161051091620520916305A5
:1028900030916405601B710B820B930B61317742A1
:1028A0008105910598F080915F05909160050196F2
:1028B0009093600580935F050E94E3066093610535
:1028C00070936205809363059093640580915F0522
:1028D00090916005029724F01092600510925F05B8
:1028E00000915F051091600580915D0590915E05F6
:1028F0008017910791F00115110509F08BC160E077
:10290000809106010E94910561E0809104010E947E
:10291000910510935E0500935D0580E10E947606A7
:1029200020915B0530915C05820F931F092E000CEE
:10293000AA0BBB0B813024E09207A105B1050CF076
:1029400074C18093570590935805A0935905B0938F
:102950005A058091570590915805A0915905B0915D
:102960005A05B7FF08C010925705109258051092EB
:10297000590510925A0520915705309158054091FC
:10298000590550915A05211592E039074105510525
:102990000CF050C1AFEFBFE30E94D31820E032E04B
:1029A00040E050E00E94B4182F5F3F4F4F4F5F4F01
:1029B00020935705309358054093590550935A0575
:1029C00081E10E9476060091550510915605800F11
:1029D000911F97FD4BC190935405809353058091AF
:1029E0005305909154058130944034F020E034E058
:1029F000309354052093530581E10E947606800FA1
:102A0000911F81159240B4F4A0915305B0915405E3
:102A10002EE130E00E942F1920E032E040E050E04B
:102A20000E94B4182E5F3F4F4F4F5F4F30935405B5
:102A30002093530581E10E947606800F911F811536
:102A40009240ECF02091530530915405032E000C78
:102A5000440B550B325041095109A0EEB0E00E94E1
:102A6000D31820E032E040E050E00E94B418205E2D
:102A70003F4F4F4F5F4F3093540520935305809144
:102A80005305909154051816190634F081E090E032
:102A9000909354058093530580915305909154056C
:102AA0008130914034F020E031E0309354052093A0
:102AB000530580910001882309F4DDC0C0905305BF
:102AC000D09054053CEDC316D1040CF054C00E94C4
:102AD000E3060091770510917805209179053091F2
:102AE0007A05601B710B820B930B009157051091B7
:102AF00058052091590530915A05061717072807E0
:102B00003907C8F546014FEF841A940A092C000CC6
:102B1000AA08BB08D194C194D1080D2C000CEE0872
:102B2000FF08C814D904EA04FB048CF48C189D082F
:102B3000AE08BF0841F00E944618A50194010E940A
:102B4000B4184B015C01C80CD91CEA1CFB1C809119
:102B5000AB059091AC05C80ED91ED092AC05C092C1
:102B6000AB050E94E3066093770570937805809328
:102B7000790590937A0580915305909154058D3D88
:102B800091057CF10E94E30600917705109178058C
:102B90002091790530917A05601B710B820B930BA4
:102BA00000915705109158052091590530915A050B
:102BB0000617170728073907A0F40E944618A30133
:102BC00092010E94B4187093AC056093AB050E940B
:102BD000E306609377057093780580937905909369
:102BE0007A058091AB059091AC0597FF04C01092D7
:102BF000AC051092AB058091AB059091AC058B3F75
:102C000091050CF4A8CCAAEFB0E0B093AC05A0936A
:102C1000AB05A1CC0130110509F07BCE61E08091BC
:102C200006010E94910560E070CE80E094E0A0E093
:102C3000B0E087CE32504109510960E070EC81E08C
:102C400090E00E94171929E09595879577956795EB
:102C50002A95D1F7705C8F4F9F4F60935705709303
:102C600058058093590590935A05AACE10925405A1
:102C700010925305B4CE809165055981581709F417
:102C8000B0CF552309F452C0C0905305D0905405DD
:102C90008CEDC816D1049CF546019FEF891A990A5C
:102CA000092C000CAA08BB08D194C194D1080D2CA2
:102CB000000CEE08FF08C814D904EA04FB048CF4E5
:102CC0008C189D08AE08BF0841F00E944618A50167
:102CD00094010E94B4184B015C01C80CD91CEA1C79
:102CE000FB1C8091AB059091AC05C80ED91ED0920B
:102CF000AC05C092AB0580916A0580936505809113
:102D00005305909154058D3D91050CF46ACF0E94B6
:102D10004618A30192010E94B4187093AC05609309
:102D2000AB0580916A05809365055BCF10926505C0
:102D300058CF0E94E30600919A0510919B052091BF
:102D40009C0530919D05601B710B820B930B0091CC
:102D500096051091970520919805309199050617D1
:102D600017072807390790F500910D0110910E0102
:102D70000819190910930E0100930D010E94E30632
:102D800060939A0570939B0580939C0590939D0595
:102D90000E94E3066093A4057093A5058093A605A1
:102DA0009093A70517FF04C010920E0110920D0119
:102DB000E0910D01F0910E01EE0FFF1FEA53F94F64
:102DC000E491F0E0F093B005E093AF059E8591119A
:102DD000E3C080910D0190910E011816190614F0B0
:102DE0000C94B00CE091AF05F091B005EE0FFF1F11
:102DF000EC53FB4FE491F0E089819A818E0F9F1F85
:102E000090930E0180930D01A1E0A0930F010C940B
:102E1000B90D0E94E30600916F0510917005209195
:102E2000710530917205AB01BC01401B510B620B67
:102E3000730B80916D0590916E05092E000CAA0B05
:102E4000BB0B84179507A607B70710F00C94620E0A
:102E5000009101011091020180916B0590916C0528
:102E6000081B190B10930201009301010E94E30655
:102E700060936F0570937005809371059093720550
:102E80000E94E30660937705709378058093790537
:102E900090937A0517FF04C010920201109201016D
:102EA000E0910101F0910201EE0FFF1FEA53F94F8B
:102EB0000C945C0E0E94E3060091330510913405DA
:102EC0002091350530913605601B710B820B930BF9
:102ED000603F79448240910510F00C940B0D609195
:102EE0001601709117016F5F7F4F70931701609308
:102EF00016011092A80584E690E00E9414076091E4
:102F0000A80589E690E00E94140780913805809317
:102F100037050C94E1080E94E30600912705109103
:102F200028052091290530912A05601B710B820B21
:102F3000930B603F79448240910510F00C940E0D84
:102F400060910A0170910B016F5F7F4F70930B01CD
:102F500060930A0110927B058EE690E00E941407B0
:102F600060917B0583E790E00E94140780912C0517
:102F700080932B050C947F09E091AD05F091AE058F
:102F8000EE0FFF1FEC53FB4FE491F0E0CE1ADF0A87
:102F9000D0920E01C0920D0110920F010C94B90D48
:102FA0002091030129831ACC1982C5CB60E085E406
:102FB00095E00E94620769E08FE395E00E94620756
:102FC00061E089E395E00E9462076AE08DE295E0A6
:102FD0000C9462078DE295E00E94040789E395E076
:102FE0000E9404078FE395E00E94040785E495E0C2
:102FF0000C9404078F929F92AF92BF92CF92DF9270
:10300000EF92FF92CF93DF93EC01688179818A81FF
:103010009B81611571058105910521F464E279EDCB
:103020008BE597E02DE133EF41E050E00E94B418CA
:1030300049015A019B01AC01A7EAB1E40E94D318EF
:103040006B017C01ACEEB4EFA50194010E94E11884
:10305000C60ED71EE81EF91EF7FE06C081E0C81A8C
:10306000D108E10880E8F80AC882D982EA82FB82A6
:10307000C701B6019F77DF91CF91FF90EF90DF906E
:10308000CF90BF90AF909F908F9008958F929F9216
:10309000AF92BF92CF92DF92EF92FF9260911801B0
:1030A0007091190180911A0190911B0161157105B0
:1030B0008105910521F464E279ED8BE597E02DE13E
:1030C00033EF41E050E00E94B41849015A019B01DE
:1030D000AC01A7EAB1E40E94D3186B017C01ACEE0D
:1030E000B4EFA50194010E94E118C60ED71EE81E98
:1030F000F91EF7FE06C081E0C81AD108E10880E891
:10310000F80AC0921801D0921901E0921A01F092C7
:103110001B01C701B6019F77FF90EF90DF90CF9022
:10312000BF90AF909F908F90089560931801709317
:10313000190180931A0190931B010895F999FECF0C
:1031400092BD81BDF89A992780B50895262FF999E7
:10315000FECF1FBA92BD81BD20BD0FB6F894FA9A7A
:10316000F99A0FBE01960895052E97FB1EF4009460
:103170000E94CB1857FD07D00E94E61807FC03D029
:103180004EF40C94CB1850954095309521953F4FB7
:103190004F4F5F4F089590958095709561957F4F43
:1031A0008F4F9F4F08950E940819A59F900DB49FBF
:1031B000900DA49F800D911D11240895B7FF0C94CC
:1031C000D3180E94D318821B930B0895A1E21A2EE4
:1031D000AA1BBB1BFD010DC0AA1FBB1FEE1FFF1FBB
:1031E000A217B307E407F50720F0A21BB30BE40B0B
:1031F000F50B661F771F881F991F1A9469F7609552
:103200007095809590959B01AC01BD01CF0108950B
:10321000A29FB001B39FC001A39F700D811D112417
:10322000911DB29F700D811D1124911D0895DB0128
:103230008F939F930E94D318BF91AF91A29F800D4F
:10324000911DA39F900DB29F900D112408950E948F
:103250000819332312F48A1B9B0B0C9431190E941A
:103260000819B7FF0895821B930B0895EE0FFF1FF7
:103270000590F491E02D099415E0C6E6D5E004C070
:10328000FE010E9436192196C736D107C9F7F89476
:10329000FFCF01010001070006000100010001014C
:1032A0000001040003000100010001000000010012
:1032B0000100010001000100010000000000000009
:1032C00000000000000000000000000000000000FE
:1032D00000000000000000000000000000000000EE
:1032E00000000000000000000000000000000000DE
:1032F00000000000000000000000000000000000CE
:1033000000000000000000000000000000000000BD
:1033100000000000000000000000000000000000AD
:10332000000000000000000000000000000000009D
:10333000000000000000000000000000000000008D
:10334000000000000000000000000000000000007D
:10335000000000000000000000000000000000006D
:10336000000000000000000000000000000000005D
:10337000000000000000000000000000000000004D
:10338000000000000000000000000000000000003D
:10339000000000000000000000000000000000002D
:1033A000000000000000000000000000000000001D
:1033B000000000000000000000000000000000000D
:1033C00000000000000000000000000000000000FD
:1033D00000000000000000000000000000000000ED
:1033E00000000000000000000000000000000000DD
:1033F00000000000000000000000000000000000CD
:1034000000000000000000000000000000000000BC
:1034100000000000000000000000000000000000AC
:103420000000000000000000C000C000C000C0009C
:10343000C000C000C100C100C100C100C100C10086
:10344000C000C000C000C000C000C000C100C1007A
:10345000C100C100C100C100C000C000C000C00068
:10346000C000C000C100C100C100C100C100C10056
:10347000BF00BF00BF00BF00BF00BF00BF00BF0054
:10348000BF00BF00BF00BF00C000C000C000C00040
:10349000C000C0006000600060006000600060006C
:1034A00061006100610061006100610000000000D6
:1034B0000000000002000400060008000A000C00E2
:1034C0000E00100012001400160018001A001C0054
:1034D0001E00200022002400260028002A002C00C4
:1034E0002E00300032003400360038003A003C0034
:1034F0003E00400042004400460048004A004C00A4
:103500004E00500052005400560058005A005C0013
:103510005E00600062006400660068006A006C0083
:103520006E00700072007400760078007A007C00F3
:103530007E00800082008400860088008A008C0063
:103540008E00900092009400960098009A009C00D3
:103550009E00A200A600AA00AE00B200B600BA000B
:10356000BE00C200C600CA00CE00D200D600DA00FB
:10357000DE00E200E600EA00EE00F200F600FA00EB
:10358000FE00020106010E0116011E0126012E0198
:1035900036013E0146014E0156015E0166016E0193
:1035A00076017E0186018E0196019E01A601AE0183
:1035B000B601BE01C601CE01D601DE01E601EE0173
:1035C000F601FE0106020E0216021E0226022E025D
:1035D00036023E0246024E0256025E0266026E024B
:1035E00076027E0286028E0296029E02A602AE023B
:1035F000B602BE02C602CE02D602DE02E602EE022B
:10360000F602FE0206030E0316031E0326032E0314
:1036100036033E0346034E0356035E0366036E0302
:1036200076037E0386038E0396039E03A603AE03F2
:10363000B603BE03C603CE03D603DE03E603EE03E2
:10364000F603FE0306040E0416041E0426042E04CC
:1036500036043E0446044E0456045E0466046E04BA
:1036600076047E0486048E049604A004AA04B4049E
:10367000BE04C804D204DC04E604F004FA04040521
:103680000E05180522052C05360540054A0554058A
:103690005E05680572057C05860590059A05A405FA
:1036A000AE05B805C205CC05D605E005EA05F4056A
:107E0000112484B714BE81FFF0D085E080938100F7
:107E100082E08093C00088E18093C10086E0809377
:107E2000C20080E18093C4008EE0C9D0259A86E02C
:107E300020E33CEF91E0309385002093840096BBD3
:107E4000B09BFECF1D9AA8958150A9F7CC24DD24C4
:107E500088248394B5E0AB2EA1E19A2EF3E0BF2EE7
:107E6000A2D0813461F49FD0082FAFD0023811F036
:107E7000013811F484E001C083E08DD089C08234E0
:107E800011F484E103C0853419F485E0A6D080C0E4
:107E9000853579F488D0E82EFF2485D0082F10E0AE
:107EA000102F00270E291F29000F111F8ED06801E7
:107EB0006FC0863521F484E090D080E0DECF843638
:107EC00009F040C070D06FD0082F6DD080E0C81688
:107ED00080E7D80618F4F601B7BEE895C0E0D1E017
:107EE00062D089930C17E1F7F0E0CF16F0E7DF06D8
:107EF00018F0F601B7BEE89568D007B600FCFDCFD4
:107F0000A601A0E0B1E02C9130E011968C91119780
:107F100090E0982F8827822B932B1296FA010C0160
:107F200087BEE89511244E5F5F4FF1E0A038BF0790
:107F300051F7F601A7BEE89507B600FCFDCF97BE46
:107F4000E89526C08437B1F42ED02DD0F82E2BD052
:107F50003CD0F601EF2C8F010F5F1F4F84911BD097
:107F6000EA94F801C1F70894C11CD11CFA94CF0C13
:107F7000D11C0EC0853739F428D08EE10CD085E9AC
:107F80000AD08FE07ACF813511F488E018D01DD067
:107F900080E101D065CF982F8091C00085FFFCCF94
:107FA0009093C60008958091C00087FFFCCF809118
:107FB000C00084FD01C0A8958091C6000895E0E648
:107FC000F0E098E1908380830895EDDF803219F02E
:107FD00088E0F5DFFFCF84E1DECF1F93182FE3DFCA
:107FE0001150E9F7F2DF1F91089580E0E8DFEE27F6
:047FF000FF270994CA
:027FFE00040479
:00000001FF
